{
  "contractName": "Todo",
  "abi": [
    {
      "constant": false,
      "inputs": [
        {
          "internalType": "int256",
          "name": "a",
          "type": "int256"
        },
        {
          "internalType": "int256",
          "name": "b",
          "type": "int256"
        }
      ],
      "name": "add",
      "outputs": [
        {
          "internalType": "int256",
          "name": "",
          "type": "int256"
        }
      ],
      "payable": false,
      "stateMutability": "nonpayable",
      "type": "function"
    },
    {
      "constant": false,
      "inputs": [
        {
          "internalType": "int256",
          "name": "a",
          "type": "int256"
        },
        {
          "internalType": "int256",
          "name": "b",
          "type": "int256"
        }
      ],
      "name": "sub",
      "outputs": [
        {
          "internalType": "int256",
          "name": "",
          "type": "int256"
        }
      ],
      "payable": false,
      "stateMutability": "nonpayable",
      "type": "function"
    },
    {
      "constant": false,
      "inputs": [
        {
          "internalType": "int256",
          "name": "a",
          "type": "int256"
        },
        {
          "internalType": "int256",
          "name": "b",
          "type": "int256"
        }
      ],
      "name": "mul",
      "outputs": [
        {
          "internalType": "int256",
          "name": "",
          "type": "int256"
        }
      ],
      "payable": false,
      "stateMutability": "nonpayable",
      "type": "function"
    },
    {
      "constant": false,
      "inputs": [
        {
          "internalType": "int256",
          "name": "a",
          "type": "int256"
        },
        {
          "internalType": "int256",
          "name": "b",
          "type": "int256"
        }
      ],
      "name": "div",
      "outputs": [
        {
          "internalType": "int256",
          "name": "",
          "type": "int256"
        }
      ],
      "payable": false,
      "stateMutability": "nonpayable",
      "type": "function"
    },
    {
      "constant": true,
      "inputs": [],
      "name": "show",
      "outputs": [
        {
          "internalType": "int256",
          "name": "",
          "type": "int256"
        }
      ],
      "payable": false,
      "stateMutability": "view",
      "type": "function"
    }
  ],
  "bytecode": "0x60806040526000805534801561001457600080fd5b5061025b806100246000396000f3fe608060405234801561001057600080fd5b50600436106100575760003560e01c8063435091381461005c578063a5f3c23b146100a8578063adefc37b146100f4578063bbe93d9114610140578063cc80f6f31461018c575b600080fd5b6100926004803603604081101561007257600080fd5b8101908080359060200190929190803590602001909291905050506101aa565b6040518082815260200191505060405180910390f35b6100de600480360360408110156100be57600080fd5b8101908080359060200190929190803590602001909291905050506101cc565b6040518082815260200191505060405180910390f35b61012a6004803603604081101561010a57600080fd5b8101908080359060200190929190803590602001909291905050506101e7565b6040518082815260200191505060405180910390f35b6101766004803603604081101561015657600080fd5b810190808035906020019092919080359060200190929190505050610202565b6040518082815260200191505060405180910390f35b61019461021d565b6040518082815260200191505060405180910390f35b60008183816101b557fe5b056000819055506101c461021d565b905092915050565b60008183016000819055506101df61021d565b905092915050565b60008183036000819055506101fa61021d565b905092915050565b600081830260008190555061021561021d565b905092915050565b6000805490509056fea265627a7a723158202af7a4fa650a705b3493fdb68285682b398921c2e7af52e76b727c3ce389b27b64736f6c63430005100032",
  "source": "// SPDX-License-Identifier: MIT\r\npragma solidity >=0.4.22 <0.7.0;\r\n\r\ncontract Todo {\r\n    int256 result = 0;\r\n\r\n    function add(int256 a, int256 b) public returns (int256) {\r\n        result = a + b;\r\n        return show();\r\n    }\r\n\r\n    function sub(int256 a, int256 b) public returns (int256) {\r\n        result = a - b;\r\n        return show();\r\n    }\r\n\r\n    function mul(int256 a, int256 b) public returns (int256) {\r\n        result = a * b;\r\n        return show();\r\n    }\r\n\r\n    function div(int256 a, int256 b) public returns (int256) {\r\n        result = a / b;\r\n        return show();\r\n    }\r\n\r\n    function show() public view returns (int256) {\r\n        return result;\r\n    }\r\n}\r\n",
  "sourcePath": "C:\\Users\\DELL\\bc\\Block-chain-code\\day 4 ToDoList\\contracts\\Todolist.sol",
  "compiler": {
    "name": "solc",
    "version": "0.5.16+commit.9c3226ce.Emscripten.clang"
  },
  "schemaVersion": "3.2.0",
  "updatedAt": "2020-07-08T04:32:49.985Z",
  "devdoc": {
    "methods": {}
  },
  "userdoc": {
    "methods": {}
  }
}