{
  "contractName": "Counter",
  "abi": [
    {
      "constant": true,
      "inputs": [],
      "name": "data",
      "outputs": [
        {
          "internalType": "int256",
          "name": "",
          "type": "int256"
        }
      ],
      "payable": false,
      "stateMutability": "view",
      "type": "function"
    },
    {
      "constant": false,
      "inputs": [],
      "name": "add",
      "outputs": [],
      "payable": false,
      "stateMutability": "nonpayable",
      "type": "function"
    },
    {
      "constant": false,
      "inputs": [],
      "name": "subtract",
      "outputs": [],
      "payable": false,
      "stateMutability": "nonpayable",
      "type": "function"
    },
    {
      "constant": true,
      "inputs": [],
      "name": "viewData",
      "outputs": [
        {
          "internalType": "int256",
          "name": "",
          "type": "int256"
        }
      ],
      "payable": false,
      "stateMutability": "view",
      "type": "function"
    }
  ],
  "bytecode": "0x60806040526000805534801561001457600080fd5b5060fa806100236000396000f3fe6080604052348015600f57600080fd5b506004361060465760003560e01c80634f2be91f14604b5780636deebae314605357806373d4a13a14605b5780637ba09759146077575b600080fd5b60516093565b005b605960a4565b005b606160b6565b6040518082815260200191505060405180910390f35b607d60bc565b6040518082815260200191505060405180910390f35b600080815460010191905081905550565b60008081546001900391905081905550565b60005481565b6000805490509056fea265627a7a72315820740f09277d3a78f857f4f662e496f67c0cd581fcd799717f3cbcc9739b29f90964736f6c63430005100032",
  "source": "// SPDX-License-Identifier: MIT\r\npragma solidity >=0.4.22 <0.7.0;\r\n\r\ncontract Counter {\r\n    int256 public data = 0;\r\n\r\n    function add() public {\r\n        ++data;\r\n    }\r\n\r\n    function subtract() public {\r\n        --data;\r\n    }\r\n\r\n    function viewData() public view returns (int256) {\r\n        return data;\r\n    }\r\n}\r\n",
  "sourcePath": "C:\\Users\\DELL\\election\\contracts\\Counter.sol",
  "compiler": {
    "name": "solc",
    "version": "0.5.16+commit.9c3226ce.Emscripten.clang"
  },
  "schemaVersion": "3.2.0",
  "updatedAt": "2020-07-07T15:07:15.357Z",
  "networkType": "ethereum",
  "devdoc": {
    "methods": {}
  },
  "userdoc": {
    "methods": {}
  }
}