{
  "contractName": "Hello",
  "abi": [
    {
      "constant": true,
      "inputs": [],
      "name": "hello",
      "outputs": [
        {
          "internalType": "string",
          "name": "",
          "type": "string"
        }
      ],
      "payable": false,
      "stateMutability": "pure",
      "type": "function"
    },
    {
      "constant": true,
      "inputs": [],
      "name": "hi",
      "outputs": [
        {
          "internalType": "string",
          "name": "",
          "type": "string"
        }
      ],
      "payable": false,
      "stateMutability": "pure",
      "type": "function"
    }
  ],
  "bytecode": "0x608060405234801561001057600080fd5b506101f0806100206000396000f3fe608060405234801561001057600080fd5b50600436106100365760003560e01c806319ff1d211461003b578063a99dca3f146100be575b600080fd5b610043610141565b6040518080602001828103825283818151815260200191508051906020019080838360005b83811015610083578082015181840152602081019050610068565b50505050905090810190601f1680156100b05780820380516001836020036101000a031916815260200191505b509250505060405180910390f35b6100c661017e565b6040518080602001828103825283818151815260200191508051906020019080838360005b838110156101065780820151818401526020810190506100eb565b50505050905090810190601f1680156101335780820380516001836020036101000a031916815260200191505b509250505060405180910390f35b60606040518060400160405280600e81526020017f48656c6c6f20576f726c64202e2e000000000000000000000000000000000000815250905090565b60606040518060400160405280600b81526020017f686920576f726c6431323300000000000000000000000000000000000000000081525090509056fea265627a7a7231582006e2145193055e804d0afd3cf43b6d71a0007a275a7641962dc96b0c529a123364736f6c63430005100032",
  "source": "// SPDX-License-Identifier: MIT\r\npragma solidity >=0.4.22 <0.7.0;\r\n\r\ncontract Hello {\r\n    function hello() public pure returns (string memory) {\r\n        return \"Hello World ..\";\r\n    }\r\n\r\n    function hi() public pure returns (string memory) {\r\n        return \"hi World123\";\r\n    }\r\n}\r\n",
  "sourcePath": "C:\\Users\\DELL\\election\\contracts\\Hello.sol",
  "compiler": {
    "name": "solc",
    "version": "0.5.16+commit.9c3226ce.Emscripten.clang"
  },
  "schemaVersion": "3.2.0",
  "updatedAt": "2020-07-02T04:34:13.006Z",
  "networkType": "ethereum",
  "devdoc": {
    "methods": {}
  },
  "userdoc": {
    "methods": {}
  }
}