{
  "contractName": "Todolist",
  "abi": [
    {
      "constant": true,
      "inputs": [
        {
          "internalType": "uint256",
          "name": "",
          "type": "uint256"
        }
      ],
      "name": "list",
      "outputs": [
        {
          "internalType": "string",
          "name": "",
          "type": "string"
        }
      ],
      "payable": false,
      "stateMutability": "view",
      "type": "function"
    },
    {
      "constant": false,
      "inputs": [
        {
          "internalType": "string",
          "name": "_value",
          "type": "string"
        }
      ],
      "name": "addValue",
      "outputs": [],
      "payable": false,
      "stateMutability": "nonpayable",
      "type": "function"
    },
    {
      "constant": true,
      "inputs": [],
      "name": "show",
      "outputs": [
        {
          "internalType": "string[]",
          "name": "",
          "type": "string[]"
        }
      ],
      "payable": false,
      "stateMutability": "view",
      "type": "function"
    }
  ],
  "bytecode": "0x608060405234801561001057600080fd5b506106ca806100206000396000f3fe608060405234801561001057600080fd5b50600436106100415760003560e01c80633a5fbaaa1461004657806380c9419e14610062578063cc80f6f314610092575b600080fd5b610060600480360361005b91908101906103ab565b6100b0565b005b61007c600480360361007791908101906103ec565b6100fb565b6040516100899190610532565b60405180910390f35b61009a6101b4565b6040516100a79190610510565b60405180910390f35b60008190806001815401808255809150509060018203906000526020600020016000909192909190915090805190602001906100ed92919061029d565b50506100f76101b4565b5050565b6000818154811061010857fe5b906000526020600020016000915090508054600181600116156101000203166002900480601f0160208091040260200160405190810160405280929190818152602001828054600181600116156101000203166002900480156101ac5780601f10610181576101008083540402835291602001916101ac565b820191906000526020600020905b81548152906001019060200180831161018f57829003601f168201915b505050505081565b60606000805480602002602001604051908101604052809291908181526020016000905b82821015610294578382906000526020600020018054600181600116156101000203166002900480601f0160208091040260200160405190810160405280929190818152602001828054600181600116156101000203166002900480156102805780601f1061025557610100808354040283529160200191610280565b820191906000526020600020905b81548152906001019060200180831161026357829003601f168201915b5050505050815260200190600101906101d8565b50505050905090565b828054600181600116156101000203166002900490600052602060002090601f016020900481019282601f106102de57805160ff191683800117855561030c565b8280016001018555821561030c579182015b8281111561030b5782518255916020019190600101906102f0565b5b509050610319919061031d565b5090565b61033f91905b8082111561033b576000816000905550600101610323565b5090565b90565b600082601f83011261035357600080fd5b813561036661036182610581565b610554565b9150808252602083016020830185838301111561038257600080fd5b61038d83828461061d565b50505092915050565b6000813590506103a581610670565b92915050565b6000602082840312156103bd57600080fd5b600082013567ffffffffffffffff8111156103d757600080fd5b6103e384828501610342565b91505092915050565b6000602082840312156103fe57600080fd5b600061040c84828501610396565b91505092915050565b6000610421838361049e565b905092915050565b6000610434826105bd565b61043e81856105e0565b935083602082028501610450856105ad565b8060005b8581101561048c578484038952815161046d8582610415565b9450610478836105d3565b925060208a01995050600181019050610454565b50829750879550505050505092915050565b60006104a9826105c8565b6104b381856105f1565b93506104c381856020860161062c565b6104cc8161065f565b840191505092915050565b60006104e2826105c8565b6104ec8185610602565b93506104fc81856020860161062c565b6105058161065f565b840191505092915050565b6000602082019050818103600083015261052a8184610429565b905092915050565b6000602082019050818103600083015261054c81846104d7565b905092915050565b6000604051905081810181811067ffffffffffffffff8211171561057757600080fd5b8060405250919050565b600067ffffffffffffffff82111561059857600080fd5b601f19601f8301169050602081019050919050565b6000819050602082019050919050565b600081519050919050565b600081519050919050565b6000602082019050919050565b600082825260208201905092915050565b600082825260208201905092915050565b600082825260208201905092915050565b6000819050919050565b82818337600083830152505050565b60005b8381101561064a57808201518184015260208101905061062f565b83811115610659576000848401525b50505050565b6000601f19601f8301169050919050565b61067981610613565b811461068457600080fd5b5056fea365627a7a72315820953423fd93824b0dc6c93cf13e582fb85271eeebb1035a0dcea1c2b226e5fadb6c6578706572696d656e74616cf564736f6c63430005100040",
  "source": "// SPDX-License-Identifier: MIT\r\npragma solidity >=0.4.21 <0.7.0;\r\npragma experimental ABIEncoderV2;\r\n\r\ncontract Todolist {\r\n    string[] public list;\r\n\r\n    function addValue(string memory _value) public {\r\n        list.push(_value);\r\n        show();\r\n    }\r\n\r\n    function show() public view returns (string[] memory) {\r\n        return list;\r\n    }\r\n}\r\n",
  "sourcePath": "C:\\Users\\DELL\\bc trial\\Block-chain-code\\day5\\contracts\\Todolist.sol",
  "compiler": {
    "name": "solc",
    "version": "0.5.16+commit.9c3226ce.Emscripten.clang"
  },
  "schemaVersion": "3.2.0",
  "updatedAt": "2020-07-10T03:08:19.548Z",
  "networkType": "ethereum",
  "devdoc": {
    "methods": {}
  },
  "userdoc": {
    "methods": {}
  }
}